:020000040000FA
:100000000C9462000C948A000C948A000C948A0070
:100010000C948A000C948A000C948A000C948A0038
:100020000C948A000C948A000C948A000C948A0028
:100030000C948A000C948A000C948A000C948A0018
:100040000C9457040C948A000C94C7040C94A104DB
:100050000C948A000C948A000C948A000C948A00F8
:100060000C948A000C948A000000000024002700F1
:100070002A0000000000250028002B0000000000DE
:1000800023002600290004040404040404040202DA
:100090000202020203030303030301020408102007
:1000A0004080010204081020010204081020000012
:1000B0000008000201000003040700000000000027
:1000C0000000F90411241FBECFEFD8E0DEBFCDBF82
:1000D00011E0A0E0B1E0E8E8FDE002C005900D927B
:1000E000A236B107D9F722E0A2E6B1E001C01D9225
:1000F000A232B207E1F710E0C2E6D0E004C02197D7
:10010000FE010E94BC06C136D107C9F70E94430513
:100110000C94C2060C940000833081F028F48130E6
:1001200099F08230A9F008958730A9F08830C9F09D
:100130008430B1F4809180008F7D03C08091800075
:100140008F7780938000089584B58F7784BD08955C
:1001500084B58F7DFBCF8091B0008F778093B00006
:1001600008958091B0008F7DF9CFCF93DF93E0EBBE
:10017000F0E08491ECE9F0E0D491E8E8F0E0C4919B
:10018000CC23A1F081110E948C00EC2FF0E0EE0F47
:10019000FF1FE458FF4FA591B491EC91ED2381E04E
:1001A00090E009F480E0DF91CF91089580E090E045
:1001B000FACF1F93CF93DF93282F30E0F901E25558
:1001C000FF4F8491F901E656FF4FD491F901EA57A8
:1001D000FF4FC491CC23A9F0162F81110E948C00EF
:1001E000EC2FF0E0EE0FFF1FEE58FF4FA591B491FA
:1001F0008FB7F894EC91111108C0D095DE23DC93F1
:100200008FBFDF91CF911F910895DE2BF8CFCF9351
:10021000DF9390E0FC01E656FF4F24918A579F4FF1
:10022000FC0184918823D1F090E0880F991FFC0194
:10023000E859FF4FA591B491FC01EE58FF4FC591CD
:10024000D491623071F49FB7F8943C91822F8095DD
:1002500083238C93E8812E2B28839FBFDF91CF913E
:1002600008958FB7F894EC912E2B2C938FBFF6CF77
:100270003FB7F8948091690190916A01A0916B0158
:10028000B0916C0126B5A89B05C02F3F19F00196CF
:10029000A11DB11D3FBFBA2FA92F982F8827BC01E0
:1002A000CD01620F711D811D911D42E0660F771F08
:1002B000881F991F4A95D1F70895AF92BF92CF92A8
:1002C000DF92EF92FF920F931F93CF93DF936C0116
:1002D0007B018B01040F151FEB015E01AE18BF08F7
:1002E000C017D10759F06991D601ED91FC910190A9
:1002F000F081E02DC6010995892B79F7C501DF91C1
:10030000CF911F910F91FF90EF90DF90CF90BF9012
:10031000AF900895FC01538D448D252F30E0842F3C
:1003200090E0821B930B541710F0CF96089501971D
:100330000895FC01918D828D981761F0A28DAE0F0A
:10034000BF2FB11D5D968C91928D9F5F9F73928F91
:1003500090E008958FEF9FEF0895FC01918D828DBD
:10036000981731F0828DE80FF11D858D90E008958A
:100370008FEF9FEF0895FC01918D228D892F90E0E2
:10038000805C9F4F821B91098F73992708958DE69A
:1003900091E00E94BB0121E0892B09F420E0822F2B
:1003A000089580E090E0892B29F00E94C701811117
:1003B0000C9400000895FC01A48DA80FB92FB11D65
:1003C000A35ABF4F2C91848D90E001968F7399278B
:1003D000848FA689B7892C93A089B1898C91837069
:1003E00080648C93938D848D981306C00288F38962
:1003F000E02D80818F7D80830895EF92FF920F938F
:100400001F93CF93DF93EC0181E0888F9B8D8C8DC0
:1004100098131AC0E889F989808185FF15C09FB7B4
:10042000F894EE89FF896083E889F9898081837077
:10043000806480839FBF81E090E0DF91CF911F9126
:100440000F91FF90EF900895F62E0B8D10E00F5F47
:100450001F4F0F731127E02E8C8D8E110CC00FB61D
:1004600007FCFACFE889F989808185FFF5CFCE01B5
:100470000E94DB01F1CFEB8DEC0FFD2FF11DE35A54
:10048000FF4FF0829FB7F8940B8FEA89FB89808138
:100490008062CFCFCF93DF93EC01888D8823B9F0B2
:1004A000AA89BB89E889F9898C9185FD03C080817F
:1004B00086FD0DC00FB607FCF7CF8C9185FFF2CFFC
:1004C000808185FFEDCFCE010E94DB01E9CFDF9176
:1004D000CF910895089590E080E008958F929F92C3
:1004E000AF92BF92CF92DF92EF92FF920F931F9342
:1004F000CF9307E010E0C0E08BE7E82E86E0F82E0F
:10050000812C912C540183940E94B5006C01C70189
:100510000197F1F70E94B500F7013197F1F7B501A6
:10052000A401002E04C0440F551F661F771F0A94B4
:10053000D2F7CD2899F0892B89F4C42B01501109E9
:1005400018F78C2FCF911F910F91FF90EF90DF90B4
:10055000CF90BF90AF909F908F9008954095C42307
:10056000EDCFCF93DF93EC0160E08E810E94D90044
:1005700061E08E810E94D90060E08E810E94D900E6
:100580008BE891E00197F1F7DF91CF910895CF9239
:10059000DF92EF92FF920F931F93CF93DF936C0143
:1005A0007C0187E0E80EF11CD0E0C0E0062F10E0EF
:1005B000B8010C2E02C0759567950A94E2F7617038
:1005C000F70181917F010E94D9002196C430D105A5
:1005D00079F7C601DF91CF911F910F91FF90EF90B6
:1005E000DF90CF900C94B102CF92DF92EF92FF9206
:1005F0000F931F93CF93DF93EC01F62E642F8C8122
:100600000E94D9008D818F3F19F060E00E94D900CF
:100610000F2D10E08F8584FF25C06E0187E0C80E86
:10062000D11CF12CE12CB8010E2C02C075956795F8
:100630000A94E2F76170F60181916F010E94D9007E
:10064000FFEFEF1AFF0A88E0E816F10461F7CE0128
:10065000DF91CF911F910F91FF90EF90DF90CF909E
:100660000C94B102B80184E0759567958A95E1F71D
:10067000CE010E94C7026F2DCE01DF91CF911F9155
:100680000F91FF90EF90DF90CF900C94C70240E065
:10069000682F8AE092E00C94F40281E00E94470304
:1006A0008BE39FE10197F1F70895CF93DF938230B9
:1006B00029F49091190298609093190280931D0279
:1006C00010921E0280E480931F0280E1809320023A
:1006D00080E58093210261E080910E020E94070173
:1006E00080910F028F3F19F061E00E94070161E0E5
:1006F000809110020E940701CAE0D2E09E012A50B8
:1007000032408091190284FD0BC084E090E0219674
:100710002817390744F461E08E810E940701EECF6B
:1007200088E090E0F4CF8BE39DE00197F1F760E083
:1007300080910E020E94D90060E0809110020E9418
:10074000D90080910F028F3F19F060E00E94D9001C
:100750008091190284FD34C063E08AE092E00E9437
:10076000C702CBE4D6E4CE010197F1F763E08AE05B
:1007700092E00E94C7022197F1F763E08AE092E0DD
:100780000E94C70283E592E00197F1F762E08AE0F8
:1007900092E00E94C7028091190280620E94470382
:1007A00084E080931A028CE00E9447030E944D036C
:1007B00082E080931B0286E0DF91CF910C94470387
:1007C00080620E9447038BE496E40197F1F78091E1
:1007D000190280620E94470383E592E00197F1F7D6
:1007E0008091190280620E944703D5CF41E00E94A8
:1007F000F40281E090E00895FB0101900020E9F708
:100800003197AF01461B570BDC01ED91FC91028043
:10081000F381E02D09948F929F92AF92BF92EF9255
:10082000FF920F931F93CF93DF93CDB7DEB7A197BE
:100830000FB6F894DEBF0FBECDBF7C01FA01CB012D
:1008400019A2223008F42AE08E010F5D1F4F822E7C
:10085000912CB12CA12CBF01A50194010E949A06F4
:10086000F901CA016A300CF5605DD8016E938D0103
:10087000232B242B252B79F790E080E0109721F093
:10088000BD01C7010E94FC03A1960FB6F894DEBF1C
:100890000FBECDBFDF91CF911F910F91FF90EF90D1
:1008A000BF90AF909F908F900895695CDECF1F92AC
:1008B0000F920FB60F9211242F933F938F939F9314
:1008C000AF93BF938091650190916601A0916701FC
:1008D000B09168013091640123E0230F2D3758F562
:1008E0000196A11DB11D2093640180936501909331
:1008F0006601A0936701B0936801809169019091AE
:100900006A01A0916B01B0916C010196A11DB11D0E
:100910008093690190936A01A0936B01B0936C017D
:10092000BF91AF919F918F913F912F910F900FBEEB
:100930000F901F90189526E8230F0296A11DB11D58
:10094000D2CF1F920F920FB60F9211242F933F9385
:100950004F935F936F937F938F939F93AF93BF93C7
:10096000EF93FF938DE691E00E94DB01FF91EF9101
:10097000BF91AF919F918F917F916F915F914F91B7
:100980003F912F910F900FBE0F901F9018951F92BF
:100990000F920FB60F9211242F938F939F93EF9383
:1009A000FF93E0917D01F0917E018081E0918301D0
:1009B000F091840182FD1BC09081809186018F5F40
:1009C0008F7320918701821741F0E0918601F0E05A
:1009D000E359FE4F958F80938601FF91EF919F9190
:1009E0008F912F910F900FBE0F901F9018958081BF
:1009F000F4CFEDE6F1E01382128288EE93E0A0E0FE
:100A0000B0E084839583A683B78386E091E09183E9
:100A1000808385EC90E09587848784EC90E09787CD
:100A2000868780EC90E0918B808B81EC90E0938BBB
:100A3000828B82EC90E0958B848B86EC90E0978B98
:100A4000868B118E128E138E148EEAE0F2E01382E2
:100A5000128288E191E09183808387E084838FEF25
:100A6000858386E0868385E0878384E0808783E0D2
:100A7000818788E0828713861486158616861786F6
:100A800081E00C945503789484B5826084BD84B56C
:100A9000816084BD85B5826085BD85B5816085BD79
:100AA00080916E00816080936E0010928100809131
:100AB00081008260809381008091810081608093B9
:100AC0008100809180008160809380008091B100DE
:100AD00084608093B1008091B00081608093B00009
:100AE00080917A00846080937A0080917A0082609D
:100AF00080937A0080917A00816080937A0080915F
:100B00007A00806880937A001092C10062E082E0EF
:100B10000E94070182E00E94550360E271E08AE0D2
:100B200092E00E94FC03E0917D01F0917E0182E061
:100B30008083E0917901F0917A011082E0917B014C
:100B4000F0917C018FEC808310928501E09181010E
:100B5000F091820186E08083E0917F01F091800135
:100B6000808180618083E0917F01F09180018081AC
:100B700088608083E0917F01F091800180818068AE
:100B80008083E0917F01F091800180818F7D80835F
:100B9000CBE7D6E000E010E00E94B5002091000114
:100BA000309101012130310509F0BDC0009709F0F5
:100BB000BAC0CE010197F1F70E946E0280936301E3
:100BC0000E946E02809362010E944D03E1E08091D9
:100BD0001D028111E0E0E195F0E0E65FFD4F8489C0
:100BE00080680E94470360E371E08AE092E00E941F
:100BF000FC0380916301803130F468E371E08AE0A6
:100C000092E00E94FC034091630150E070E060E0DC
:100C100020E18AE092E00E940B04E0911D02E230A4
:100C200008F086C0E150F0E0E65FFD4F84898068FF
:100C30000E9447036AE371E08AE092E00E94FC03AD
:100C400080916201803130F468E371E08AE092E0E3
:100C50000E94FC034091620150E070E060E020E1FE
:100C60008AE092E00E940B0462E471E08DE691E07C
:100C70000E94FC034091630150E070E060E020E1DD
:100C80008DE691E00E940B0460E571E08DE691E055
:100C90000E94FC034091620150E070E060E020E1BE
:100CA0008DE691E00E940B046EE571E08DE691E027
:100CB0000E94FC030E9438014B015C0180EDC82EAC
:100CC00087E0D82EE12CF12C0E94380168197909AF
:100CD0008A099B09683E734081059105A8F321E0CC
:100CE000C21AD108E108F10888EE880E83E0981E48
:100CF000A11CB11CC114D104E104F10429F70E9424
:100D00004D0360E271E08AE092E00E94FC0301156D
:100D1000110509F441CF0E94C701882309F43CCF93
:100D20000E94000039CF909301018093000134CFDD
:100D3000E1E079CFA1E21A2EAA1BBB1BFD010DC079
:100D4000AA1FBB1FEE1FFF1FA217B307E407F5077B
:100D500020F0A21BB30BE40BF50B661F771F881F57
:100D6000991F1A9469F760957095809590959B01ED
:100D7000AC01BD01CF010895EE0FFF1F0590F49166
:100D8000E02D0994F894FFCF010000000000FD0160
:100D90005D018A014A02BB019901AD01000000001A
:100DA000F6035D016B026A024573706572616E64E1
:100DB0006F206461746F73004469723A2030780068
:100DC0003000436D643A2030780044697265636393
:100DD000696F6E3A203078002020436F6D616E6439
:0A0DE0006F3A203078000D0A000081
:107E0000112484B714BE81FFF0D085E080938100F7
:107E100082E08093C00088E18093C10086E0809377
:107E2000C20080E18093C4008EE0C9D0259A86E02C
:107E300020E33CEF91E0309385002093840096BBD3
:107E4000B09BFECF1D9AA8958150A9F7CC24DD24C4
:107E500088248394B5E0AB2EA1E19A2EF3E0BF2EE7
:107E6000A2D0813461F49FD0082FAFD0023811F036
:107E7000013811F484E001C083E08DD089C08234E0
:107E800011F484E103C0853419F485E0A6D080C0E4
:107E9000853579F488D0E82EFF2485D0082F10E0AE
:107EA000102F00270E291F29000F111F8ED06801E7
:107EB0006FC0863521F484E090D080E0DECF843638
:107EC00009F040C070D06FD0082F6DD080E0C81688
:107ED00080E7D80618F4F601B7BEE895C0E0D1E017
:107EE00062D089930C17E1F7F0E0CF16F0E7DF06D8
:107EF00018F0F601B7BEE89568D007B600FCFDCFD4
:107F0000A601A0E0B1E02C9130E011968C91119780
:107F100090E0982F8827822B932B1296FA010C0160
:107F200087BEE89511244E5F5F4FF1E0A038BF0790
:107F300051F7F601A7BEE89507B600FCFDCF97BE46
:107F4000E89526C08437B1F42ED02DD0F82E2BD052
:107F50003CD0F601EF2C8F010F5F1F4F84911BD097
:107F6000EA94F801C1F70894C11CD11CFA94CF0C13
:107F7000D11C0EC0853739F428D08EE10CD085E9AC
:107F80000AD08FE07ACF813511F488E018D01DD067
:107F900080E101D065CF982F8091C00085FFFCCF94
:107FA0009093C60008958091C00087FFFCCF809118
:107FB000C00084FD01C0A8958091C6000895E0E648
:107FC000F0E098E1908380830895EDDF803219F02E
:107FD00088E0F5DFFFCF84E1DECF1F93182FE3DFCA
:107FE0001150E9F7F2DF1F91089580E0E8DFEE27F6
:047FF000FF270994CA
:027FFE00040479
:00000001FF
