:020000040000FA
:100000000C9462000C948A000C948A000C948A0070
:100010000C948A000C948A000C948A000C948A0038
:100020000C948A000C948A000C948A000C948A0028
:100030000C948A000C948A000C948A000C948A0018
:100040000C948C030C948A000C948A000C948A0003
:100050000C948A000C948A000C948A000C948A00F8
:100060000C948A000C948A000000000024002700F1
:100070002A0000000000250028002B0000000000DE
:1000800023002600290004040404040404040202DA
:100090000202020203030303030301020408102007
:1000A0004080010204081020010204081020000012
:1000B0000008000201000003040700000000000027
:1000C0000000DC0411241FBECFEFD8E0DEBFCDBF9F
:1000D00011E0A0E0B1E0E8E4FAE002C005900D9282
:1000E000AA33B107D9F721E0AAE3B1E001C01D921C
:1000F000AD35B207E1F710E0C2E6D0E004C02197C9
:10010000FE010E941C05C136D107C9F70E94D60323
:100110000C9422050C940000833081F028F4813087
:1001200099F08230A9F008958730A9F08830C9F09D
:100130008430B1F4809180008F7D03C08091800075
:100140008F7780938000089584B58F7784BD08955C
:1001500084B58F7DFBCF8091B0008F778093B00006
:1001600008958091B0008F7DF9CFCF93DF93E0EBBE
:10017000F0E08491ECE9F0E0D491E8E8F0E0C4919B
:10018000CC23A1F081110E948C00EC2FF0E0EE0F47
:10019000FF1FE458FF4FA591B491EC91ED2381E04E
:1001A00090E009F480E0DF91CF91089580E090E045
:1001B000FACF1F93CF93DF93282F30E0F901E25558
:1001C000FF4F8491F901E656FF4FD491F901EA57A8
:1001D000FF4FC491CC23A9F0162F81110E948C00EF
:1001E000EC2FF0E0EE0FFF1FEE58FF4FA591B491FA
:1001F0008FB7F894EC91111108C0D095DE23DC93F1
:100200008FBFDF91CF911F910895DE2BF8CFCF9351
:10021000DF9390E0FC01E656FF4F24918A579F4FF1
:10022000FC0184918823D1F090E0880F991FFC0194
:10023000E859FF4FA591B491FC01EE58FF4FC591CD
:10024000D49161110EC09FB7F8948C91E22FE09584
:100250008E238C932881E223E8839FBFDF91CF9187
:1002600008958FB7F894EC91E22BEC938FBFF6CF03
:100270003FB7F8948091410190914201A0914301D0
:10028000B091440126B5A89B05C02F3F19F00196F7
:10029000A11DB11D3FBFBA2FA92F982F8827BC01E0
:1002A000CD01620F711D811D911D42E0660F771F08
:1002B000881F991F4A95D1F708958F929F92AF9208
:1002C000BF92CF92DF92EF92FF920E9438014B01D2
:1002D0005C0188EEC82E83E0D82EE12CF12C0E9420
:1002E0003801681979098A099B09683E73408105BC
:1002F0009105A8F321E0C21AD108E108F10888EEBF
:10030000880E83E0981EA11CB11CC114D104E10425
:10031000F10429F7FF90EF90DF90CF90BF90AF905E
:100320009F908F900895AF92BF92CF92DF92EF92FD
:10033000FF920F931F93CF93DF936C017B018B018F
:10034000040F151FEB015E01AE18BF08C017D107DF
:1003500059F06991D601ED91FC910190F081E02D69
:10036000C6010995892B79F7C501DF91CF911F91BE
:100370000F91FF90EF90DF90CF90BF90AF900895D6
:10038000089590E080E00895CF93DF930E94B50038
:10039000EC018BE796E00197F1F70E94B500CD2BB9
:1003A00039F0892B81F08FEF9FEFDF91CF91089586
:1003B00021E030E0892B11F030E020E088279927F8
:1003C000821B930BF2CF81E090E0EFCF8F929F9250
:1003D000AF92BF920F931F93CF93DF93CDB7DEB74A
:1003E000A1970FB6F894DEBF0FBECDBF19A2423061
:1003F00008F44AE08E010F5D1F4F842E912CB12C22
:10040000A12CA50194010E94FA04E62FB901CA01AA
:10041000EA3044F5E05DD801EE938D01232B242BC7
:10042000252B79F790E080E0109769F0FD010190AD
:100430000020E9F73197AF014A1B5B0BBD0185E452
:1004400091E00E949301A1960FB6F894DEBF0FBE13
:10045000CDBFDF91CF911F910F91BF90AF909F9033
:100460008F900895E95CD7CFFC0101900020E9F757
:100470003197AF01481B590BBC0185E491E00C9406
:100480009301CF93DF93EC0160E08E810E94D9004D
:1004900061E08E810E94D90060E08E810E94D900C7
:1004A0008BE891E00197F1F7DF91CF910895CF921A
:1004B000DF92EF92FF920F931F93CF93DF936C0124
:1004C0007C0187E0E80EF11CD0E0C0E0062F10E0D0
:1004D000B8010C2E02C0759567950A94E2F7617019
:1004E000F70181917F010E94D9002196C430D10586
:1004F00079F7C601DF91CF911F910F91FF90EF9097
:10050000DF90CF900C944102CF92DF92EF92FF9256
:100510000F931F93CF93DF93EC01F62E642F8C8102
:100520000E94D9008D818F3F19F060E00E94D900B0
:100530000F2D10E08F8584FF25C06E0187E0C80E67
:10054000D11CF12CE12CB8010E2C02C075956795D9
:100550000A94E2F76170F60181916F010E94D9005F
:10056000FFEFEF1AFF0A88E0E816F10461F7CE0109
:10057000DF91CF911F910F91FF90EF90DF90CF907F
:100580000C944102B80184E0759567958A95E1F76E
:10059000CE010E9457026F2DCE01DF91CF911F91A6
:1005A0000F91FF90EF90DF90CF900C94570240E0B6
:1005B000682F85E491E00C94840281E00E94D702C8
:1005C0008BE39FE10197F1F70895CF93DF9382309A
:1005D00029F49091540198609093540180935801AC
:1005E0001092590180E480935A0180E180935B016D
:1005F00080E580935C0161E0809149010E940701E0
:1006000080914A018F3F19F061E00E94070161E08B
:1006100080914B010E940701C5E4D1E09E01255461
:1006200031408091540184FD0BC084E090E021961C
:100630002817390744F461E08E810E940701EECF4C
:1006400088E090E0F4CF8BE39DE00197F1F760E064
:10065000809149010E94D90060E080914B010E9485
:10066000D90080914A018F3F19F060E00E94D900C3
:100670008091540184FD34C063E085E491E00E94E0
:100680005702CBE4D6E4CE010197F1F763E085E4AD
:1006900091E00E9457022197F1F763E085E491E031
:1006A0000E94570283E592E00197F1F762E085E44A
:1006B00091E00E9457028091540180620E94D7020B
:1006C00084E0809355018CE00E94D7020E94DD02F5
:1006D00082E08093560186E0DF91CF910C94D7029F
:1006E00080620E94D7028BE496E40197F1F7809133
:1006F000540180620E94D70283E592E00197F1F7EE
:100700008091540180620E94D702D5CF41E00E94BF
:10071000840281E090E008951F920F920FB60F922D
:1007200011242F933F938F939F93AF93BF93809107
:100730003D0190913E01A0913F01B0914001309167
:100740003C0123E0230F2D3758F50196A11DB11D63
:1007500020933C0180933D0190933E01A0933F0183
:10076000B09340018091410190914201A0914301D9
:10077000B09144010196A11DB11D80934101909358
:100780004201A0934301B0934401BF91AF919F9167
:100790008F913F912F910F900FBE0F901F90189542
:1007A00026E8230F0296A11DB11DD2CF789484B5FF
:1007B000826084BD84B5816084BD85B5826085BD5D
:1007C00085B5816085BD80916E00816080936E00EB
:1007D00010928100809181008260809381008091DD
:1007E000810081608093810080918000816080938E
:1007F00080008091B10084608093B1008091B0004E
:1008000081608093B00080917A00846080937A0048
:1008100080917A00826080937A0080917A00816072
:1008200080937A0080917A00806880937A00109299
:10083000C10060E082E00E94070182E00E94E502C0
:100840008CE091E00E9434020E945D010E94DD0272
:100850008AE191E00E9434020BE313E0812C912C99
:10086000540183949BEFC92E9CE0D92E20E0E22E08
:1008700020E0F22E0E94B500892BE1F3C801019718
:10088000F1F710923B0110923A010E94C401C7E0B7
:10089000D0E0019759F0E114F10461F30E940000E7
:1008A000E9CF4095422331C0E1E05FC00E94C4011E
:1008B0008F3F980781F3B501A4010C2E04C0440FAB
:1008C000551F661F771F0A94D2F720913B01892B91
:1008D00009F46FC0422B40933B01219738F7C7E0E2
:1008E000D0E00E94C4018F3F9807A9F2B501A4018E
:1008F0000C2E04C0440F551F661F771F0A94D2F7B1
:1009000020913A01892B69F2422B40933A012197B9
:1009100040F7C6010197F1F70E94DD02E1E0809106
:1009200058018111E0E0E195F0E0EB5BFE4F848936
:1009300080680E94D70287E291E00E943402809191
:100940003B01803120F48FE291E00E9434026091FB
:100950003B0170E090E080E040E10E94E601E09120
:100960005801E23008F0A0CFE150F0E0EB5BFE4F21
:10097000848980680E94D70281E391E00E9434025A
:1009800080913A01803120F48FE291E00E9434029C
:1009900060913A0170E090E080E040E10E94E60161
:1009A0000E945D010E94DD028AE191E00E94340212
:1009B00072CF409542238FCFE5E4F1E0138212829B
:1009C00084E091E09183808387E084838FEF858347
:1009D00086E0868385E0878384E0808783E0818763
:1009E00088E082871386148615861686178681E02E
:1009F0000C94E502A1E21A2EAA1BBB1BFD010DC03F
:100A0000AA1FBB1FEE1FFF1FA217B307E407F507BE
:100A100020F0A21BB30BE40BF50B661F771F881F9A
:100A2000991F1A9469F760957095809590959B0130
:100A3000AC01BD01CF010895EE0FFF1F0590F491A9
:100A4000E02D0994F894FFCF000000008603930185
:100A5000C101C0015265636570746F722044414CDE
:100A600049004573706572616E646F2E2E2E0044CE
:100A700069723A203078003000436D643A20307853
:020A8000000074
:107E0000112484B714BE81FFF0D085E080938100F7
:107E100082E08093C00088E18093C10086E0809377
:107E2000C20080E18093C4008EE0C9D0259A86E02C
:107E300020E33CEF91E0309385002093840096BBD3
:107E4000B09BFECF1D9AA8958150A9F7CC24DD24C4
:107E500088248394B5E0AB2EA1E19A2EF3E0BF2EE7
:107E6000A2D0813461F49FD0082FAFD0023811F036
:107E7000013811F484E001C083E08DD089C08234E0
:107E800011F484E103C0853419F485E0A6D080C0E4
:107E9000853579F488D0E82EFF2485D0082F10E0AE
:107EA000102F00270E291F29000F111F8ED06801E7
:107EB0006FC0863521F484E090D080E0DECF843638
:107EC00009F040C070D06FD0082F6DD080E0C81688
:107ED00080E7D80618F4F601B7BEE895C0E0D1E017
:107EE00062D089930C17E1F7F0E0CF16F0E7DF06D8
:107EF00018F0F601B7BEE89568D007B600FCFDCFD4
:107F0000A601A0E0B1E02C9130E011968C91119780
:107F100090E0982F8827822B932B1296FA010C0160
:107F200087BEE89511244E5F5F4FF1E0A038BF0790
:107F300051F7F601A7BEE89507B600FCFDCF97BE46
:107F4000E89526C08437B1F42ED02DD0F82E2BD052
:107F50003CD0F601EF2C8F010F5F1F4F84911BD097
:107F6000EA94F801C1F70894C11CD11CFA94CF0C13
:107F7000D11C0EC0853739F428D08EE10CD085E9AC
:107F80000AD08FE07ACF813511F488E018D01DD067
:107F900080E101D065CF982F8091C00085FFFCCF94
:107FA0009093C60008958091C00087FFFCCF809118
:107FB000C00084FD01C0A8958091C6000895E0E648
:107FC000F0E098E1908380830895EDDF803219F02E
:107FD00088E0F5DFFFCF84E1DECF1F93182FE3DFCA
:107FE0001150E9F7F2DF1F91089580E0E8DFEE27F6
:047FF000FF270994CA
:027FFE00040479
:00000001FF
