:100000000C945C000C946E000C946E000C946E00CA
:100010000C946E000C946E000C946E000C946E00A8
:100020000C946E000C946E000C946E000C946E0098
:100030000C946E000C946E000C946E000C946E0088
:100040000C9439010C946E000C946E000C946E00AC
:100050000C946E000C946E000C946E000C946E0068
:100060000C946E000C946E00000000002400270029
:100070002A0000000000250028002B0004040404CE
:100080000404040402020202020203030303030342
:10009000010204081020408001020408102001021F
:1000A00004081020000000080002010000030407FB
:1000B000000000000000000011241FBECFEFD8E0B8
:1000C000DEBFCDBF21E0A0E0B1E001C01D92A930AC
:1000D000B207E1F70E9483010C941D020C9400000A
:1000E000ECEAF0E02491E8E9F0E09491E4E8F0E053
:1000F000E491EE23C9F0222339F0233001F1A8F472
:10010000213019F1223029F1F0E0EE0FFF1FEE58F7
:10011000FF4FA591B4912FB7F894EC91811126C0AF
:1001200090959E239C932FBF08952730A9F02830E7
:10013000C9F0243049F7209180002F7D03C0209121
:1001400080002F7720938000DFCF24B52F7724BD48
:10015000DBCF24B52F7DFBCF2091B0002F772093EC
:10016000B000D2CF2091B0002F7DF9CF9E2BDACFF7
:100170003FB7F8948091050190910601A091070185
:10018000B091080126B5A89B05C02F3F19F0019634
:10019000A11DB11D3FBFBA2FA92F982F8827BC01E1
:1001A000CD01620F711D811D911D42E0660F771F09
:1001B000881F991F4A95D1F708958F929F92AF9209
:1001C000BF92CF92DF92EF92FF924B015C010E94AF
:1001D000B8006B017C010E94B8006C197D098E0982
:1001E0009F09683E734081059105A8F321E0821ABA
:1001F0009108A108B10888EEC80E83E0D81EE11C62
:10020000F11C81149104A104B10429F7FF90EF902F
:10021000DF90CF90BF90AF909F908F900895CF9335
:10022000DF9381E00E947000CBE3D6E0CE0101971E
:10023000F1F780E00E9470002197F1F7DF91CF91F4
:100240000895CF93DF93882321F0DF91CF910C9411
:100250000F0180E00E947000CBE3D6E0CE01019751
:10026000F1F781E00E9470002197F1F7DF91CF91C3
:1002700008951F920F920FB60F9211242F933F9360
:100280008F939F93AF93BF9380910101909102014F
:10029000A0910301B09104013091000123E0230FEC
:1002A0002D3758F50196A11DB11D209300018093B3
:1002B000010190930201A0930301B0930401809186
:1002C000050190910601A0910701B09108010196E6
:1002D000A11DB11D8093050190930601A093070114
:1002E000B0930801BF91AF919F918F913F912F9152
:1002F0000F900FBE0F901F90189526E8230F0296BF
:10030000A11DB11DD2CF789484B5826084BD84B51F
:10031000816084BD85B5826085BD85B5816085BD00
:1003200080916E00816080936E00109281008091B8
:100330008100826080938100809181008160809340
:100340008100809180008160809380008091B10065
:1003500084608093B1008091B00081608093B00090
:1003600080917A00846080937A0080917A00826024
:1003700080937A0080917A00816080937A008091E6
:100380007A00806880937A001092C100E8E9F0E07A
:100390002491E4E8F0E08491882399F090E0880FBC
:1003A000991FFC01E859FF4FA591B491FC01EE584B
:1003B000FF4F859194918FB7F894EC91E22BEC93D9
:1003C0008FBF80E00E94700068EE73E080E090E0F4
:1003D0000E94DD0007E010E08BE7E82E8CE0F82EAD
:1003E00090E0C92E90E0D92E0E940F01C8E0D0E025
:1003F00080E00E9421012197D9F7C7E0D0E0C80131
:100400000C2E02C0959587950A94E2F781700E94A0
:1004100021012197A0F780E00E947000C701019799
:10042000F1F760ED77E080E090E00E94DD00C1141C
:0E043000D104D1F20E940000D7CFF894FFCF84
:00000001FF
